{
  "_format": "hh-sol-artifact-1",
  "contractName": "FreeToken1",
  "sourceName": "contracts/FreeToken1.sol",
  "abi": [
    {
      "inputs": [],
      "stateMutability": "nonpayable",
      "type": "constructor"
    },
    {
      "anonymous": false,
      "inputs": [
        {
          "indexed": true,
          "internalType": "address",
          "name": "owner",
          "type": "address"
        },
        {
          "indexed": true,
          "internalType": "address",
          "name": "spender",
          "type": "address"
        },
        {
          "indexed": false,
          "internalType": "uint256",
          "name": "value",
          "type": "uint256"
        }
      ],
      "name": "Approval",
      "type": "event"
    },
    {
      "anonymous": false,
      "inputs": [
        {
          "indexed": true,
          "internalType": "address",
          "name": "from",
          "type": "address"
        },
        {
          "indexed": true,
          "internalType": "address",
          "name": "to",
          "type": "address"
        },
        {
          "indexed": false,
          "internalType": "uint256",
          "name": "value",
          "type": "uint256"
        }
      ],
      "name": "Transfer",
      "type": "event"
    },
    {
      "inputs": [
        {
          "internalType": "address",
          "name": "owner",
          "type": "address"
        },
        {
          "internalType": "address",
          "name": "spender",
          "type": "address"
        }
      ],
      "name": "allowance",
      "outputs": [
        {
          "internalType": "uint256",
          "name": "",
          "type": "uint256"
        }
      ],
      "stateMutability": "view",
      "type": "function"
    },
    {
      "inputs": [
        {
          "internalType": "address",
          "name": "spender",
          "type": "address"
        },
        {
          "internalType": "uint256",
          "name": "amount",
          "type": "uint256"
        }
      ],
      "name": "approve",
      "outputs": [
        {
          "internalType": "bool",
          "name": "",
          "type": "bool"
        }
      ],
      "stateMutability": "nonpayable",
      "type": "function"
    },
    {
      "inputs": [
        {
          "internalType": "address",
          "name": "account",
          "type": "address"
        }
      ],
      "name": "balanceOf",
      "outputs": [
        {
          "internalType": "uint256",
          "name": "",
          "type": "uint256"
        }
      ],
      "stateMutability": "view",
      "type": "function"
    },
    {
      "inputs": [],
      "name": "decimals",
      "outputs": [
        {
          "internalType": "uint8",
          "name": "",
          "type": "uint8"
        }
      ],
      "stateMutability": "view",
      "type": "function"
    },
    {
      "inputs": [
        {
          "internalType": "address",
          "name": "spender",
          "type": "address"
        },
        {
          "internalType": "uint256",
          "name": "subtractedValue",
          "type": "uint256"
        }
      ],
      "name": "decreaseAllowance",
      "outputs": [
        {
          "internalType": "bool",
          "name": "",
          "type": "bool"
        }
      ],
      "stateMutability": "nonpayable",
      "type": "function"
    },
    {
      "inputs": [
        {
          "internalType": "uint256",
          "name": "_amount",
          "type": "uint256"
        }
      ],
      "name": "getFree",
      "outputs": [],
      "stateMutability": "nonpayable",
      "type": "function"
    },
    {
      "inputs": [
        {
          "internalType": "address",
          "name": "spender",
          "type": "address"
        },
        {
          "internalType": "uint256",
          "name": "addedValue",
          "type": "uint256"
        }
      ],
      "name": "increaseAllowance",
      "outputs": [
        {
          "internalType": "bool",
          "name": "",
          "type": "bool"
        }
      ],
      "stateMutability": "nonpayable",
      "type": "function"
    },
    {
      "inputs": [],
      "name": "name",
      "outputs": [
        {
          "internalType": "string",
          "name": "",
          "type": "string"
        }
      ],
      "stateMutability": "view",
      "type": "function"
    },
    {
      "inputs": [],
      "name": "symbol",
      "outputs": [
        {
          "internalType": "string",
          "name": "",
          "type": "string"
        }
      ],
      "stateMutability": "view",
      "type": "function"
    },
    {
      "inputs": [],
      "name": "totalSupply",
      "outputs": [
        {
          "internalType": "uint256",
          "name": "",
          "type": "uint256"
        }
      ],
      "stateMutability": "view",
      "type": "function"
    },
    {
      "inputs": [
        {
          "internalType": "address",
          "name": "to",
          "type": "address"
        },
        {
          "internalType": "uint256",
          "name": "amount",
          "type": "uint256"
        }
      ],
      "name": "transfer",
      "outputs": [
        {
          "internalType": "bool",
          "name": "",
          "type": "bool"
        }
      ],
      "stateMutability": "nonpayable",
      "type": "function"
    },
    {
      "inputs": [
        {
          "internalType": "address",
          "name": "from",
          "type": "address"
        },
        {
          "internalType": "address",
          "name": "to",
          "type": "address"
        },
        {
          "internalType": "uint256",
          "name": "amount",
          "type": "uint256"
        }
      ],
      "name": "transferFrom",
      "outputs": [
        {
          "internalType": "bool",
          "name": "",
          "type": "bool"
        }
      ],
      "stateMutability": "nonpayable",
      "type": "function"
    }
  ],
  "bytecode": "0x60806040523480156200001157600080fd5b506040518060400160405280600a81526020017f46726565546f6b656e31000000000000000000000000000000000000000000008152506040518060400160405280600381526020017f465431000000000000000000000000000000000000000000000000000000000081525081600390805190602001906200009692919062000259565b508060049080519060200190620000af92919062000259565b505050620000d0306b033b2e3c9fd0803ce8000000620000d660201b60201c565b620004b5565b600073ffffffffffffffffffffffffffffffffffffffff168273ffffffffffffffffffffffffffffffffffffffff16141562000149576040517f08c379a0000000000000000000000000000000000000000000000000000000008152600401620001409062000341565b60405180910390fd5b6200015d600083836200024f60201b60201c565b806002600082825462000171919062000391565b92505081905550806000808473ffffffffffffffffffffffffffffffffffffffff1673ffffffffffffffffffffffffffffffffffffffff1681526020019081526020016000206000828254620001c8919062000391565b925050819055508173ffffffffffffffffffffffffffffffffffffffff16600073ffffffffffffffffffffffffffffffffffffffff167fddf252ad1be2c89b69c2b068fc378daa952ba7f163c4a11628f55a4df523b3ef836040516200022f919062000363565b60405180910390a36200024b600083836200025460201b60201c565b5050565b505050565b505050565b8280546200026790620003f8565b90600052602060002090601f0160209004810192826200028b5760008555620002d7565b82601f10620002a657805160ff1916838001178555620002d7565b82800160010185558215620002d7579182015b82811115620002d6578251825591602001919060010190620002b9565b5b509050620002e69190620002ea565b5090565b5b8082111562000305576000816000905550600101620002eb565b5090565b600062000318601f8362000380565b915062000325826200048c565b602082019050919050565b6200033b81620003ee565b82525050565b600060208201905081810360008301526200035c8162000309565b9050919050565b60006020820190506200037a600083018462000330565b92915050565b600082825260208201905092915050565b60006200039e82620003ee565b9150620003ab83620003ee565b9250827fffffffffffffffffffffffffffffffffffffffffffffffffffffffffffffffff03821115620003e357620003e26200042e565b5b828201905092915050565b6000819050919050565b600060028204905060018216806200041157607f821691505b602082108114156200042857620004276200045d565b5b50919050565b7f4e487b7100000000000000000000000000000000000000000000000000000000600052601160045260246000fd5b7f4e487b7100000000000000000000000000000000000000000000000000000000600052602260045260246000fd5b7f45524332303a206d696e7420746f20746865207a65726f206164647265737300600082015250565b61152280620004c56000396000f3fe608060405234801561001057600080fd5b50600436106100b45760003560e01c806370a082311161007157806370a08231146101a357806395d89b41146101d3578063a457c2d7146101f1578063a869f1ff14610221578063a9059cbb1461023d578063dd62ed3e1461026d576100b4565b806306fdde03146100b9578063095ea7b3146100d757806318160ddd1461010757806323b872dd14610125578063313ce567146101555780633950935114610173575b600080fd5b6100c161029d565b6040516100ce9190610f03565b60405180910390f35b6100f160048036038101906100ec9190610c98565b61032f565b6040516100fe9190610ee8565b60405180910390f35b61010f610352565b60405161011c9190611025565b60405180910390f35b61013f600480360381019061013a9190610c45565b61035c565b60405161014c9190610ee8565b60405180910390f35b61015d61038b565b60405161016a9190611040565b60405180910390f35b61018d60048036038101906101889190610c98565b610394565b60405161019a9190610ee8565b60405180910390f35b6101bd60048036038101906101b89190610bd8565b6103cb565b6040516101ca9190611025565b60405180910390f35b6101db610413565b6040516101e89190610f03565b60405180910390f35b61020b60048036038101906102069190610c98565b6104a5565b6040516102189190610ee8565b60405180910390f35b61023b60048036038101906102369190610d05565b61051c565b005b61025760048036038101906102529190610c98565b610605565b6040516102649190610ee8565b60405180910390f35b61028760048036038101906102829190610c05565b610628565b6040516102949190611025565b60405180910390f35b6060600380546102ac906111af565b80601f01602080910402602001604051908101604052809291908181526020018280546102d8906111af565b80156103255780601f106102fa57610100808354040283529160200191610325565b820191906000526020600020905b81548152906001019060200180831161030857829003601f168201915b5050505050905090565b60008061033a6106af565b90506103478185856106b7565b600191505092915050565b6000600254905090565b6000806103676106af565b9050610374858285610882565b61037f85858561090e565b60019150509392505050565b60006012905090565b60008061039f6106af565b90506103c08185856103b18589610628565b6103bb9190611077565b6106b7565b600191505092915050565b60008060008373ffffffffffffffffffffffffffffffffffffffff1673ffffffffffffffffffffffffffffffffffffffff168152602001908152602001600020549050919050565b606060048054610422906111af565b80601f016020809104026020016040519081016040528092919081815260200182805461044e906111af565b801561049b5780601f106104705761010080835404028352916020019161049b565b820191906000526020600020905b81548152906001019060200180831161047e57829003601f168201915b5050505050905090565b6000806104b06106af565b905060006104be8286610628565b905083811015610503576040517f08c379a00000000000000000000000000000000000000000000000000000000081526004016104fa90611005565b60405180910390fd5b61051082868684036106b7565b60019250505092915050565b6103e8811115610561576040517f08c379a000000000000000000000000000000000000000000000000000000000815260040161055890610fe5565b60405180910390fd5b3073ffffffffffffffffffffffffffffffffffffffff1663a9059cbb33670de0b6b3a76400008461059291906110cd565b6040518363ffffffff1660e01b81526004016105af929190610ebf565b602060405180830381600087803b1580156105c957600080fd5b505af11580156105dd573d6000803e3d6000fd5b505050506040513d601f19601f820116820180604052508101906106019190610cd8565b5050565b6000806106106106af565b905061061d81858561090e565b600191505092915050565b6000600160008473ffffffffffffffffffffffffffffffffffffffff1673ffffffffffffffffffffffffffffffffffffffff16815260200190815260200160002060008373ffffffffffffffffffffffffffffffffffffffff1673ffffffffffffffffffffffffffffffffffffffff16815260200190815260200160002054905092915050565b600033905090565b600073ffffffffffffffffffffffffffffffffffffffff168373ffffffffffffffffffffffffffffffffffffffff161415610727576040517f08c379a000000000000000000000000000000000000000000000000000000000815260040161071e90610fc5565b60405180910390fd5b600073ffffffffffffffffffffffffffffffffffffffff168273ffffffffffffffffffffffffffffffffffffffff161415610797576040517f08c379a000000000000000000000000000000000000000000000000000000000815260040161078e90610f45565b60405180910390fd5b80600160008573ffffffffffffffffffffffffffffffffffffffff1673ffffffffffffffffffffffffffffffffffffffff16815260200190815260200160002060008473ffffffffffffffffffffffffffffffffffffffff1673ffffffffffffffffffffffffffffffffffffffff168152602001908152602001600020819055508173ffffffffffffffffffffffffffffffffffffffff168373ffffffffffffffffffffffffffffffffffffffff167f8c5be1e5ebec7d5bd14f71427d1e84f3dd0314c0f7b2291e5b200ac8c7c3b925836040516108759190611025565b60405180910390a3505050565b600061088e8484610628565b90507fffffffffffffffffffffffffffffffffffffffffffffffffffffffffffffffff811461090857818110156108fa576040517f08c379a00000000000000000000000000000000000000000000000000000000081526004016108f190610f65565b60405180910390fd5b61090784848484036106b7565b5b50505050565b600073ffffffffffffffffffffffffffffffffffffffff168373ffffffffffffffffffffffffffffffffffffffff16141561097e576040517f08c379a000000000000000000000000000000000000000000000000000000000815260040161097590610fa5565b60405180910390fd5b600073ffffffffffffffffffffffffffffffffffffffff168273ffffffffffffffffffffffffffffffffffffffff1614156109ee576040517f08c379a00000000000000000000000000000000000000000000000000000000081526004016109e590610f25565b60405180910390fd5b6109f9838383610b8f565b60008060008573ffffffffffffffffffffffffffffffffffffffff1673ffffffffffffffffffffffffffffffffffffffff16815260200190815260200160002054905081811015610a7f576040517f08c379a0000000000000000000000000000000000000000000000000000000008152600401610a7690610f85565b60405180910390fd5b8181036000808673ffffffffffffffffffffffffffffffffffffffff1673ffffffffffffffffffffffffffffffffffffffff16815260200190815260200160002081905550816000808573ffffffffffffffffffffffffffffffffffffffff1673ffffffffffffffffffffffffffffffffffffffff1681526020019081526020016000206000828254610b129190611077565b925050819055508273ffffffffffffffffffffffffffffffffffffffff168473ffffffffffffffffffffffffffffffffffffffff167fddf252ad1be2c89b69c2b068fc378daa952ba7f163c4a11628f55a4df523b3ef84604051610b769190611025565b60405180910390a3610b89848484610b94565b50505050565b505050565b505050565b600081359050610ba8816114a7565b92915050565b600081519050610bbd816114be565b92915050565b600081359050610bd2816114d5565b92915050565b600060208284031215610bee57610bed61123f565b5b6000610bfc84828501610b99565b91505092915050565b60008060408385031215610c1c57610c1b61123f565b5b6000610c2a85828601610b99565b9250506020610c3b85828601610b99565b9150509250929050565b600080600060608486031215610c5e57610c5d61123f565b5b6000610c6c86828701610b99565b9350506020610c7d86828701610b99565b9250506040610c8e86828701610bc3565b9150509250925092565b60008060408385031215610caf57610cae61123f565b5b6000610cbd85828601610b99565b9250506020610cce85828601610bc3565b9150509250929050565b600060208284031215610cee57610ced61123f565b5b6000610cfc84828501610bae565b91505092915050565b600060208284031215610d1b57610d1a61123f565b5b6000610d2984828501610bc3565b91505092915050565b610d3b81611127565b82525050565b610d4a81611139565b82525050565b6000610d5b8261105b565b610d658185611066565b9350610d7581856020860161117c565b610d7e81611244565b840191505092915050565b6000610d96602383611066565b9150610da182611255565b604082019050919050565b6000610db9602283611066565b9150610dc4826112a4565b604082019050919050565b6000610ddc601d83611066565b9150610de7826112f3565b602082019050919050565b6000610dff602683611066565b9150610e0a8261131c565b604082019050919050565b6000610e22602583611066565b9150610e2d8261136b565b604082019050919050565b6000610e45602483611066565b9150610e50826113ba565b604082019050919050565b6000610e68602383611066565b9150610e7382611409565b604082019050919050565b6000610e8b602583611066565b9150610e9682611458565b604082019050919050565b610eaa81611165565b82525050565b610eb98161116f565b82525050565b6000604082019050610ed46000830185610d32565b610ee16020830184610ea1565b9392505050565b6000602082019050610efd6000830184610d41565b92915050565b60006020820190508181036000830152610f1d8184610d50565b905092915050565b60006020820190508181036000830152610f3e81610d89565b9050919050565b60006020820190508181036000830152610f5e81610dac565b9050919050565b60006020820190508181036000830152610f7e81610dcf565b9050919050565b60006020820190508181036000830152610f9e81610df2565b9050919050565b60006020820190508181036000830152610fbe81610e15565b9050919050565b60006020820190508181036000830152610fde81610e38565b9050919050565b60006020820190508181036000830152610ffe81610e5b565b9050919050565b6000602082019050818103600083015261101e81610e7e565b9050919050565b600060208201905061103a6000830184610ea1565b92915050565b60006020820190506110556000830184610eb0565b92915050565b600081519050919050565b600082825260208201905092915050565b600061108282611165565b915061108d83611165565b9250827fffffffffffffffffffffffffffffffffffffffffffffffffffffffffffffffff038211156110c2576110c16111e1565b5b828201905092915050565b60006110d882611165565b91506110e383611165565b9250817fffffffffffffffffffffffffffffffffffffffffffffffffffffffffffffffff048311821515161561111c5761111b6111e1565b5b828202905092915050565b600061113282611145565b9050919050565b60008115159050919050565b600073ffffffffffffffffffffffffffffffffffffffff82169050919050565b6000819050919050565b600060ff82169050919050565b60005b8381101561119a57808201518184015260208101905061117f565b838111156111a9576000848401525b50505050565b600060028204905060018216806111c757607f821691505b602082108114156111db576111da611210565b5b50919050565b7f4e487b7100000000000000000000000000000000000000000000000000000000600052601160045260246000fd5b7f4e487b7100000000000000000000000000000000000000000000000000000000600052602260045260246000fd5b600080fd5b6000601f19601f8301169050919050565b7f45524332303a207472616e7366657220746f20746865207a65726f206164647260008201527f6573730000000000000000000000000000000000000000000000000000000000602082015250565b7f45524332303a20617070726f766520746f20746865207a65726f20616464726560008201527f7373000000000000000000000000000000000000000000000000000000000000602082015250565b7f45524332303a20696e73756666696369656e7420616c6c6f77616e6365000000600082015250565b7f45524332303a207472616e7366657220616d6f756e742065786365656473206260008201527f616c616e63650000000000000000000000000000000000000000000000000000602082015250565b7f45524332303a207472616e736665722066726f6d20746865207a65726f20616460008201527f6472657373000000000000000000000000000000000000000000000000000000602082015250565b7f45524332303a20617070726f76652066726f6d20746865207a65726f2061646460008201527f7265737300000000000000000000000000000000000000000000000000000000602082015250565b7f796f752063616e277420676574206d6f7265207468616e20313030302070657260008201527f2054780000000000000000000000000000000000000000000000000000000000602082015250565b7f45524332303a2064656372656173656420616c6c6f77616e63652062656c6f7760008201527f207a65726f000000000000000000000000000000000000000000000000000000602082015250565b6114b081611127565b81146114bb57600080fd5b50565b6114c781611139565b81146114d257600080fd5b50565b6114de81611165565b81146114e957600080fd5b5056fea2646970667358221220dec16ebe9ef8b49a153ee7f560ddc17285d5f0d568706dcfb9cb891893ac4f6364736f6c63430008070033",
  "linkReferences": {},
  "deployedLinkReferences": {}
}