{
  "_format": "hh-sol-artifact-1",
  "contractName": "StakerParadise",
  "sourceName": "contracts/StakerParadise.sol",
  "abi": [
    {
      "inputs": [
        {
          "internalType": "address",
          "name": "spt_token_address",
          "type": "address"
        }
      ],
      "stateMutability": "nonpayable",
      "type": "constructor"
    },
    {
      "anonymous": false,
      "inputs": [
        {
          "indexed": true,
          "internalType": "address",
          "name": "user",
          "type": "address"
        }
      ],
      "name": "Claimed",
      "type": "event"
    },
    {
      "anonymous": false,
      "inputs": [
        {
          "indexed": true,
          "internalType": "uint256",
          "name": "poolId",
          "type": "uint256"
        },
        {
          "indexed": true,
          "internalType": "address",
          "name": "userAddress",
          "type": "address"
        }
      ],
      "name": "NewStaker",
      "type": "event"
    },
    {
      "anonymous": false,
      "inputs": [
        {
          "indexed": true,
          "internalType": "address",
          "name": "previousOwner",
          "type": "address"
        },
        {
          "indexed": true,
          "internalType": "address",
          "name": "newOwner",
          "type": "address"
        }
      ],
      "name": "OwnershipTransferred",
      "type": "event"
    },
    {
      "anonymous": false,
      "inputs": [
        {
          "indexed": true,
          "internalType": "uint256",
          "name": "poolId",
          "type": "uint256"
        },
        {
          "indexed": true,
          "internalType": "uint256",
          "name": "createdAt",
          "type": "uint256"
        }
      ],
      "name": "PoolCreated",
      "type": "event"
    },
    {
      "anonymous": false,
      "inputs": [
        {
          "indexed": true,
          "internalType": "uint256",
          "name": "poolId",
          "type": "uint256"
        },
        {
          "indexed": true,
          "internalType": "address",
          "name": "userAddress",
          "type": "address"
        }
      ],
      "name": "Unstaked",
      "type": "event"
    },
    {
      "inputs": [],
      "name": "SPT",
      "outputs": [
        {
          "internalType": "contract IERC20",
          "name": "",
          "type": "address"
        }
      ],
      "stateMutability": "view",
      "type": "function"
    },
    {
      "inputs": [],
      "name": "claimReward",
      "outputs": [],
      "stateMutability": "nonpayable",
      "type": "function"
    },
    {
      "inputs": [
        {
          "internalType": "address",
          "name": "_tokenAddress",
          "type": "address"
        },
        {
          "internalType": "uint256",
          "name": "_maxSupply",
          "type": "uint256"
        },
        {
          "internalType": "uint256",
          "name": "_depositTime",
          "type": "uint256"
        },
        {
          "internalType": "uint256",
          "name": "_minDeposit",
          "type": "uint256"
        },
        {
          "internalType": "uint256",
          "name": "_amountOfTokenReward",
          "type": "uint256"
        },
        {
          "internalType": "uint256",
          "name": "_stakeTime",
          "type": "uint256"
        }
      ],
      "name": "createInvestmentPool",
      "outputs": [],
      "stateMutability": "nonpayable",
      "type": "function"
    },
    {
      "inputs": [],
      "name": "getCurrentId",
      "outputs": [
        {
          "internalType": "uint256",
          "name": "",
          "type": "uint256"
        }
      ],
      "stateMutability": "view",
      "type": "function"
    },
    {
      "inputs": [],
      "name": "getEndIVP",
      "outputs": [
        {
          "components": [
            {
              "internalType": "uint256",
              "name": "id",
              "type": "uint256"
            },
            {
              "internalType": "address",
              "name": "tokenAddress",
              "type": "address"
            },
            {
              "internalType": "uint256",
              "name": "maxSupply",
              "type": "uint256"
            },
            {
              "internalType": "uint256",
              "name": "depositTime",
              "type": "uint256"
            },
            {
              "internalType": "uint256",
              "name": "minDeposit",
              "type": "uint256"
            },
            {
              "internalType": "uint256",
              "name": "amountOfTokenReward",
              "type": "uint256"
            },
            {
              "internalType": "uint256",
              "name": "currentBalance",
              "type": "uint256"
            },
            {
              "internalType": "uint256",
              "name": "stakeTime",
              "type": "uint256"
            },
            {
              "internalType": "address[]",
              "name": "stakers",
              "type": "address[]"
            },
            {
              "internalType": "uint256",
              "name": "createdAt",
              "type": "uint256"
            }
          ],
          "internalType": "struct StakerParadise.IVP[]",
          "name": "",
          "type": "tuple[]"
        }
      ],
      "stateMutability": "view",
      "type": "function"
    },
    {
      "inputs": [
        {
          "internalType": "uint256",
          "name": "_IVPid",
          "type": "uint256"
        }
      ],
      "name": "getIVPdetails",
      "outputs": [
        {
          "components": [
            {
              "internalType": "uint256",
              "name": "id",
              "type": "uint256"
            },
            {
              "internalType": "address",
              "name": "tokenAddress",
              "type": "address"
            },
            {
              "internalType": "uint256",
              "name": "maxSupply",
              "type": "uint256"
            },
            {
              "internalType": "uint256",
              "name": "depositTime",
              "type": "uint256"
            },
            {
              "internalType": "uint256",
              "name": "minDeposit",
              "type": "uint256"
            },
            {
              "internalType": "uint256",
              "name": "amountOfTokenReward",
              "type": "uint256"
            },
            {
              "internalType": "uint256",
              "name": "currentBalance",
              "type": "uint256"
            },
            {
              "internalType": "uint256",
              "name": "stakeTime",
              "type": "uint256"
            },
            {
              "internalType": "address[]",
              "name": "stakers",
              "type": "address[]"
            },
            {
              "internalType": "uint256",
              "name": "createdAt",
              "type": "uint256"
            }
          ],
          "internalType": "struct StakerParadise.IVP",
          "name": "",
          "type": "tuple"
        }
      ],
      "stateMutability": "view",
      "type": "function"
    },
    {
      "inputs": [],
      "name": "getLiveIVP",
      "outputs": [
        {
          "components": [
            {
              "internalType": "uint256",
              "name": "id",
              "type": "uint256"
            },
            {
              "internalType": "address",
              "name": "tokenAddress",
              "type": "address"
            },
            {
              "internalType": "uint256",
              "name": "maxSupply",
              "type": "uint256"
            },
            {
              "internalType": "uint256",
              "name": "depositTime",
              "type": "uint256"
            },
            {
              "internalType": "uint256",
              "name": "minDeposit",
              "type": "uint256"
            },
            {
              "internalType": "uint256",
              "name": "amountOfTokenReward",
              "type": "uint256"
            },
            {
              "internalType": "uint256",
              "name": "currentBalance",
              "type": "uint256"
            },
            {
              "internalType": "uint256",
              "name": "stakeTime",
              "type": "uint256"
            },
            {
              "internalType": "address[]",
              "name": "stakers",
              "type": "address[]"
            },
            {
              "internalType": "uint256",
              "name": "createdAt",
              "type": "uint256"
            }
          ],
          "internalType": "struct StakerParadise.IVP[]",
          "name": "",
          "type": "tuple[]"
        }
      ],
      "stateMutability": "view",
      "type": "function"
    },
    {
      "inputs": [
        {
          "internalType": "address",
          "name": "_user",
          "type": "address"
        }
      ],
      "name": "getUserInvestment",
      "outputs": [
        {
          "components": [
            {
              "internalType": "uint256",
              "name": "id",
              "type": "uint256"
            },
            {
              "internalType": "address",
              "name": "tokenAddress",
              "type": "address"
            },
            {
              "internalType": "uint256",
              "name": "maxSupply",
              "type": "uint256"
            },
            {
              "internalType": "uint256",
              "name": "depositTime",
              "type": "uint256"
            },
            {
              "internalType": "uint256",
              "name": "minDeposit",
              "type": "uint256"
            },
            {
              "internalType": "uint256",
              "name": "amountOfTokenReward",
              "type": "uint256"
            },
            {
              "internalType": "uint256",
              "name": "currentBalance",
              "type": "uint256"
            },
            {
              "internalType": "uint256",
              "name": "stakeTime",
              "type": "uint256"
            },
            {
              "internalType": "address[]",
              "name": "stakers",
              "type": "address[]"
            },
            {
              "internalType": "uint256",
              "name": "createdAt",
              "type": "uint256"
            }
          ],
          "internalType": "struct StakerParadise.IVP[]",
          "name": "",
          "type": "tuple[]"
        }
      ],
      "stateMutability": "view",
      "type": "function"
    },
    {
      "inputs": [
        {
          "internalType": "address",
          "name": "_user",
          "type": "address"
        },
        {
          "internalType": "uint256",
          "name": "_IVPid",
          "type": "uint256"
        }
      ],
      "name": "isUserStaker",
      "outputs": [
        {
          "internalType": "bool",
          "name": "",
          "type": "bool"
        }
      ],
      "stateMutability": "view",
      "type": "function"
    },
    {
      "inputs": [],
      "name": "owner",
      "outputs": [
        {
          "internalType": "address",
          "name": "",
          "type": "address"
        }
      ],
      "stateMutability": "view",
      "type": "function"
    },
    {
      "inputs": [],
      "name": "renounceOwnership",
      "outputs": [],
      "stateMutability": "nonpayable",
      "type": "function"
    },
    {
      "inputs": [
        {
          "internalType": "uint256",
          "name": "_IVPid",
          "type": "uint256"
        },
        {
          "internalType": "uint256",
          "name": "_amount",
          "type": "uint256"
        }
      ],
      "name": "stake",
      "outputs": [],
      "stateMutability": "nonpayable",
      "type": "function"
    },
    {
      "inputs": [
        {
          "internalType": "address",
          "name": "newOwner",
          "type": "address"
        }
      ],
      "name": "transferOwnership",
      "outputs": [],
      "stateMutability": "nonpayable",
      "type": "function"
    },
    {
      "inputs": [
        {
          "internalType": "uint256",
          "name": "_IVPid",
          "type": "uint256"
        }
      ],
      "name": "unstake",
      "outputs": [],
      "stateMutability": "nonpayable",
      "type": "function"
    },
    {
      "inputs": [
        {
          "internalType": "address",
          "name": "",
          "type": "address"
        },
        {
          "internalType": "uint256",
          "name": "",
          "type": "uint256"
        }
      ],
      "name": "userBalanceInPool",
      "outputs": [
        {
          "internalType": "uint256",
          "name": "",
          "type": "uint256"
        }
      ],
      "stateMutability": "view",
      "type": "function"
    },
    {
      "inputs": [
        {
          "internalType": "address",
          "name": "",
          "type": "address"
        }
      ],
      "name": "userRewards",
      "outputs": [
        {
          "internalType": "uint256",
          "name": "",
          "type": "uint256"
        }
      ],
      "stateMutability": "view",
      "type": "function"
    }
  ],
  "bytecode": "0x608060405260016004553480156200001657600080fd5b5060405162002e2538038062002e2583398181016040528101906200003c919062000187565b6200005c62000050620000a460201b60201c565b620000ac60201b60201c565b80600560006101000a81548173ffffffffffffffffffffffffffffffffffffffff021916908373ffffffffffffffffffffffffffffffffffffffff160217905550506200020c565b600033905090565b60008060009054906101000a900473ffffffffffffffffffffffffffffffffffffffff169050816000806101000a81548173ffffffffffffffffffffffffffffffffffffffff021916908373ffffffffffffffffffffffffffffffffffffffff1602179055508173ffffffffffffffffffffffffffffffffffffffff168173ffffffffffffffffffffffffffffffffffffffff167f8be0079c531659141344cd1fd0a4f28419497f9722a3daafe3b4186f6b6457e060405160405180910390a35050565b6000815190506200018181620001f2565b92915050565b600060208284031215620001a0576200019f620001ed565b5b6000620001b08482850162000170565b91505092915050565b6000620001c682620001cd565b9050919050565b600073ffffffffffffffffffffffffffffffffffffffff82169050919050565b600080fd5b620001fd81620001b9565b81146200020957600080fd5b50565b612c09806200021c6000396000f3fe608060405234801561001057600080fd5b50600436106101005760003560e01c80637b0472f011610097578063b88a802f11610066578063b88a802f1461029b578063ce609b37146102a5578063e9550114146102d5578063f2fde38b146102f357610100565b80637b0472f01461022557806386ac5c94146102415780638da5cb5b1461025f578063affa8d811461027d57610100565b806342324b3c116100d357806342324b3c1461019d5780636c143862146101cd578063715018a6146101eb5780637aeaafb1146101f557610100565b80630660f1e81461010557806313236e75146101355780632e17de781461015157806332f658811461016d575b600080fd5b61011f600480360381019061011a9190611faa565b61030f565b60405161012c9190612742565b60405180910390f35b61014f600480360381019061014a9190612017565b610327565b005b61016b600480360381019061016691906120d1565b6105d2565b005b61018760048036038101906101829190611faa565b6109c7565b60405161019491906125e8565b60405180910390f35b6101b760048036038101906101b29190611fd7565b610c3b565b6040516101c4919061260a565b60405180910390f35b6101d5610e22565b6040516101e29190612742565b60405180910390f35b6101f3610e2c565b005b61020f600480360381019061020a9190611fd7565b610eb4565b60405161021c9190612742565b60405180910390f35b61023f600480360381019061023a919061212b565b610ed9565b005b610249611426565b60405161025691906125e8565b60405180910390f35b610267611706565b604051610274919061256d565b60405180910390f35b61028561172f565b6040516102929190612625565b60405180910390f35b6102a3611755565b005b6102bf60048036038101906102ba91906120d1565b6118e7565b6040516102cc9190612720565b60405180910390f35b6102dd611a49565b6040516102ea91906125e8565b60405180910390f35b61030d60048036038101906103089190611faa565b611d29565b005b60036020528060005260406000206000915090505481565b61032f611e21565b73ffffffffffffffffffffffffffffffffffffffff1661034d611706565b73ffffffffffffffffffffffffffffffffffffffff16146103a3576040517f08c379a000000000000000000000000000000000000000000000000000000000815260040161039a906126a0565b60405180910390fd5b600060045490506001600460008282546103bd91906127e0565b92505081905550806001600083815260200190815260200160002060000181905550866001600083815260200190815260200160002060010160006101000a81548173ffffffffffffffffffffffffffffffffffffffff021916908373ffffffffffffffffffffffffffffffffffffffff160217905550856001600083815260200190815260200160002060020181905550846001600083815260200190815260200160002060030181905550836001600083815260200190815260200160002060040181905550826001600083815260200190815260200160002060050181905550816001600083815260200190815260200160002060070181905550426001600083815260200190815260200160002060090181905550600560009054906101000a900473ffffffffffffffffffffffffffffffffffffffff1673ffffffffffffffffffffffffffffffffffffffff166323b872dd3330670de0b6b3a76400008761052a9190612867565b6040518463ffffffff1660e01b815260040161054893929190612588565b602060405180830381600087803b15801561056257600080fd5b505af1158015610576573d6000803e3d6000fd5b505050506040513d601f19601f8201168201806040525081019061059a91906120a4565b5042817f37d4a71449cd4163b2d08aeed513412fe798bf25bb804c48f90470f32a17308f60405160405180910390a350505050505050565b60006001600083815260200190815260200160002060405180610140016040529081600082015481526020016001820160009054906101000a900473ffffffffffffffffffffffffffffffffffffffff1673ffffffffffffffffffffffffffffffffffffffff1673ffffffffffffffffffffffffffffffffffffffff1681526020016002820154815260200160038201548152602001600482015481526020016005820154815260200160068201548152602001600782015481526020016008820180548060200260200160405190810160405280929190818152602001828054801561071457602002820191906000526020600020905b8160009054906101000a900473ffffffffffffffffffffffffffffffffffffffff1673ffffffffffffffffffffffffffffffffffffffff16815260200190600101908083116106ca575b50505050508152602001600982015481525050905042620151808260e0015161073d9190612867565b6201518083606001516107509190612867565b83610120015161076091906127e0565b61076a91906127e0565b11156107ab576040517f08c379a00000000000000000000000000000000000000000000000000000000081526004016107a2906126c0565b60405180910390fd5b6000600260003373ffffffffffffffffffffffffffffffffffffffff1673ffffffffffffffffffffffffffffffffffffffff16815260200190815260200160002060008481526020019081526020016000205490506000600260003373ffffffffffffffffffffffffffffffffffffffff1673ffffffffffffffffffffffffffffffffffffffff168152602001908152602001600020600085815260200190815260200160002081905550606460016000858152602001908152602001600020600601548261087a9190612836565b6108849190612867565b600360003373ffffffffffffffffffffffffffffffffffffffff1673ffffffffffffffffffffffffffffffffffffffff16815260200190815260200160002060008282546108d291906127e0565b92505081905550816020015173ffffffffffffffffffffffffffffffffffffffff1663a9059cbb33670de0b6b3a76400008461090e9190612867565b6040518363ffffffff1660e01b815260040161092b9291906125bf565b602060405180830381600087803b15801561094557600080fd5b505af1158015610959573d6000803e3d6000fd5b505050506040513d601f19601f8201168201806040525081019061097d91906120a4565b503373ffffffffffffffffffffffffffffffffffffffff16837f81b0ac4b13aab1ab3b86d524dd62924e99a9d694e94e235f627bb41589717ff760405160405180910390a3505050565b60606000806000600190505b600454811015610a1657600115156109eb8683610c3b565b15151415610a0357600182610a0091906127e0565b91505b8080610a0e9061293f565b9150506109d3565b5060008167ffffffffffffffff811115610a3357610a32612a15565b5b604051908082528060200260200182016040528015610a6c57816020015b610a59611eed565b815260200190600190039081610a515790505b5090506000600190505b600454811015610c2f5760011515610a8e8783610c3b565b15151415610c1c5760006001600083815260200190815260200160002090508060405180610140016040529081600082015481526020016001820160009054906101000a900473ffffffffffffffffffffffffffffffffffffffff1673ffffffffffffffffffffffffffffffffffffffff1673ffffffffffffffffffffffffffffffffffffffff16815260200160028201548152602001600382015481526020016004820154815260200160058201548152602001600682015481526020016007820154815260200160088201805480602002602001604051908101604052809291908181526020018280548015610bdb57602002820191906000526020600020905b8160009054906101000a900473ffffffffffffffffffffffffffffffffffffffff1673ffffffffffffffffffffffffffffffffffffffff1681526020019060010190808311610b91575b50505050508152602001600982015481525050838681518110610c0157610c006129e6565b5b60200260200101819052508480610c179061293f565b955050505b8080610c279061293f565b915050610a76565b50809350505050919050565b6000806001600084815260200190815260200160002060405180610140016040529081600082015481526020016001820160009054906101000a900473ffffffffffffffffffffffffffffffffffffffff1673ffffffffffffffffffffffffffffffffffffffff1673ffffffffffffffffffffffffffffffffffffffff16815260200160028201548152602001600382015481526020016004820154815260200160058201548152602001600682015481526020016007820154815260200160088201805480602002602001604051908101604052809291908181526020018280548015610d7e57602002820191906000526020600020905b8160009054906101000a900473ffffffffffffffffffffffffffffffffffffffff1673ffffffffffffffffffffffffffffffffffffffff1681526020019060010190808311610d34575b50505050508152602001600982015481525050905060005b81610100015151811015610e15578473ffffffffffffffffffffffffffffffffffffffff168261010001518281518110610dd357610dd26129e6565b5b602002602001015173ffffffffffffffffffffffffffffffffffffffff161415610e0257600192505050610e1c565b8080610e0d9061293f565b915050610d96565b5060009150505b92915050565b6000600454905090565b610e34611e21565b73ffffffffffffffffffffffffffffffffffffffff16610e52611706565b73ffffffffffffffffffffffffffffffffffffffff1614610ea8576040517f08c379a0000000000000000000000000000000000000000000000000000000008152600401610e9f906126a0565b60405180910390fd5b610eb26000611e29565b565b6002602052816000526040600020602052806000526040600020600091509150505481565b60006001600084815260200190815260200160002060405180610140016040529081600082015481526020016001820160009054906101000a900473ffffffffffffffffffffffffffffffffffffffff1673ffffffffffffffffffffffffffffffffffffffff1673ffffffffffffffffffffffffffffffffffffffff1681526020016002820154815260200160038201548152602001600482015481526020016005820154815260200160068201548152602001600782015481526020016008820180548060200260200160405190810160405280929190818152602001828054801561101b57602002820191906000526020600020905b8160009054906101000a900473ffffffffffffffffffffffffffffffffffffffff1673ffffffffffffffffffffffffffffffffffffffff1681526020019060010190808311610fd1575b505050505081526020016009820154815250509050670de0b6b3a7640000826110449190612867565b816020015173ffffffffffffffffffffffffffffffffffffffff166370a08231336040518263ffffffff1660e01b8152600401611081919061256d565b60206040518083038186803b15801561109957600080fd5b505afa1580156110ad573d6000803e3d6000fd5b505050506040513d601f19601f820116820180604052508101906110d191906120fe565b1015611112576040517f08c379a000000000000000000000000000000000000000000000000000000000815260040161110990612680565b60405180910390fd5b8060800151821015611159576040517f08c379a0000000000000000000000000000000000000000000000000000000008152600401611150906126e0565b60405180910390fd5b80604001518160c001518361116e91906127e0565b11156111af576040517f08c379a00000000000000000000000000000000000000000000000000000000081526004016111a690612640565b60405180910390fd5b426201518082606001516111c39190612867565b8261012001516111d391906127e0565b1015611214576040517f08c379a000000000000000000000000000000000000000000000000000000000815260040161120b90612700565b60405180910390fd5b600015156112223385610c3b565b151514156112a25760016000848152602001908152602001600020600801339080600181540180825580915050600190039060005260206000200160009091909190916101000a81548173ffffffffffffffffffffffffffffffffffffffff021916908373ffffffffffffffffffffffffffffffffffffffff1602179055505b816001600085815260200190815260200160002060060160008282546112c891906127e0565b9250508190555081600260003373ffffffffffffffffffffffffffffffffffffffff1673ffffffffffffffffffffffffffffffffffffffff1681526020019081526020016000206000858152602001908152602001600020600082825461132f91906127e0565b92505081905550806020015173ffffffffffffffffffffffffffffffffffffffff166323b872dd3330670de0b6b3a76400008661136c9190612867565b6040518463ffffffff1660e01b815260040161138a93929190612588565b602060405180830381600087803b1580156113a457600080fd5b505af11580156113b8573d6000803e3d6000fd5b505050506040513d601f19601f820116820180604052508101906113dc91906120a4565b503373ffffffffffffffffffffffffffffffffffffffff16837fcbe314a854079e63e71d2d5c0e1703c22c73cb3e835b34a7ed86ac4df96cd57e60405160405180910390a3505050565b60606000806000600190505b6004548110156114ac576201518060016000838152602001908152602001600020600301546114619190612867565b600160008381526020019081526020016000206009015461148291906127e0565b4211156114995760018261149691906127e0565b91505b80806114a49061293f565b915050611432565b5060008167ffffffffffffffff8111156114c9576114c8612a15565b5b60405190808252806020026020018201604052801561150257816020015b6114ef611eed565b8152602001906001900390816114e75790505b5090506000600190505b6004548110156116fc5762015180600160008381526020019081526020016000206003015461153b9190612867565b600160008381526020019081526020016000206009015461155c91906127e0565b4211156116e95760006001600083815260200190815260200160002090508060405180610140016040529081600082015481526020016001820160009054906101000a900473ffffffffffffffffffffffffffffffffffffffff1673ffffffffffffffffffffffffffffffffffffffff1673ffffffffffffffffffffffffffffffffffffffff168152602001600282015481526020016003820154815260200160048201548152602001600582015481526020016006820154815260200160078201548152602001600882018054806020026020016040519081016040528092919081815260200182805480156116a857602002820191906000526020600020905b8160009054906101000a900473ffffffffffffffffffffffffffffffffffffffff1673ffffffffffffffffffffffffffffffffffffffff168152602001906001019080831161165e575b505050505081526020016009820154815250508386815181106116ce576116cd6129e6565b5b602002602001018190525084806116e49061293f565b955050505b80806116f49061293f565b91505061150c565b5080935050505090565b60008060009054906101000a900473ffffffffffffffffffffffffffffffffffffffff16905090565b600560009054906101000a900473ffffffffffffffffffffffffffffffffffffffff1681565b6000600360003373ffffffffffffffffffffffffffffffffffffffff1673ffffffffffffffffffffffffffffffffffffffff1681526020019081526020016000205490506000600360003373ffffffffffffffffffffffffffffffffffffffff1673ffffffffffffffffffffffffffffffffffffffff16815260200190815260200160002081905550600560009054906101000a900473ffffffffffffffffffffffffffffffffffffffff1673ffffffffffffffffffffffffffffffffffffffff1663a9059cbb33670de0b6b3a7640000846118319190612867565b6040518363ffffffff1660e01b815260040161184e9291906125bf565b602060405180830381600087803b15801561186857600080fd5b505af115801561187c573d6000803e3d6000fd5b505050506040513d601f19601f820116820180604052508101906118a091906120a4565b503373ffffffffffffffffffffffffffffffffffffffff167fb449c24d261a59627b537c8c41c57ab559f4205c56bea745ff61c5521bece21460405160405180910390a250565b6118ef611eed565b6001600083815260200190815260200160002060405180610140016040529081600082015481526020016001820160009054906101000a900473ffffffffffffffffffffffffffffffffffffffff1673ffffffffffffffffffffffffffffffffffffffff1673ffffffffffffffffffffffffffffffffffffffff16815260200160028201548152602001600382015481526020016004820154815260200160058201548152602001600682015481526020016007820154815260200160088201805480602002602001604051908101604052809291908181526020018280548015611a2f57602002820191906000526020600020905b8160009054906101000a900473ffffffffffffffffffffffffffffffffffffffff1673ffffffffffffffffffffffffffffffffffffffff16815260200190600101908083116119e5575b505050505081526020016009820154815250509050919050565b60606000806000600190505b600454811015611acf57620151806001600083815260200190815260200160002060030154611a849190612867565b6001600083815260200190815260200160002060090154611aa591906127e0565b421015611abc57600182611ab991906127e0565b91505b8080611ac79061293f565b915050611a55565b5060008167ffffffffffffffff811115611aec57611aeb612a15565b5b604051908082528060200260200182016040528015611b2557816020015b611b12611eed565b815260200190600190039081611b0a5790505b5090506000600190505b600454811015611d1f57620151806001600083815260200190815260200160002060030154611b5e9190612867565b6001600083815260200190815260200160002060090154611b7f91906127e0565b421015611d0c5760006001600083815260200190815260200160002090508060405180610140016040529081600082015481526020016001820160009054906101000a900473ffffffffffffffffffffffffffffffffffffffff1673ffffffffffffffffffffffffffffffffffffffff1673ffffffffffffffffffffffffffffffffffffffff16815260200160028201548152602001600382015481526020016004820154815260200160058201548152602001600682015481526020016007820154815260200160088201805480602002602001604051908101604052809291908181526020018280548015611ccb57602002820191906000526020600020905b8160009054906101000a900473ffffffffffffffffffffffffffffffffffffffff1673ffffffffffffffffffffffffffffffffffffffff1681526020019060010190808311611c81575b50505050508152602001600982015481525050838681518110611cf157611cf06129e6565b5b60200260200101819052508480611d079061293f565b955050505b8080611d179061293f565b915050611b2f565b5080935050505090565b611d31611e21565b73ffffffffffffffffffffffffffffffffffffffff16611d4f611706565b73ffffffffffffffffffffffffffffffffffffffff1614611da5576040517f08c379a0000000000000000000000000000000000000000000000000000000008152600401611d9c906126a0565b60405180910390fd5b600073ffffffffffffffffffffffffffffffffffffffff168173ffffffffffffffffffffffffffffffffffffffff161415611e15576040517f08c379a0000000000000000000000000000000000000000000000000000000008152600401611e0c90612660565b60405180910390fd5b611e1e81611e29565b50565b600033905090565b60008060009054906101000a900473ffffffffffffffffffffffffffffffffffffffff169050816000806101000a81548173ffffffffffffffffffffffffffffffffffffffff021916908373ffffffffffffffffffffffffffffffffffffffff1602179055508173ffffffffffffffffffffffffffffffffffffffff168173ffffffffffffffffffffffffffffffffffffffff167f8be0079c531659141344cd1fd0a4f28419497f9722a3daafe3b4186f6b6457e060405160405180910390a35050565b60405180610140016040528060008152602001600073ffffffffffffffffffffffffffffffffffffffff16815260200160008152602001600081526020016000815260200160008152602001600081526020016000815260200160608152602001600081525090565b600081359050611f6581612b8e565b92915050565b600081519050611f7a81612ba5565b92915050565b600081359050611f8f81612bbc565b92915050565b600081519050611fa481612bbc565b92915050565b600060208284031215611fc057611fbf612a44565b5b6000611fce84828501611f56565b91505092915050565b60008060408385031215611fee57611fed612a44565b5b6000611ffc85828601611f56565b925050602061200d85828601611f80565b9150509250929050565b60008060008060008060c0878903121561203457612033612a44565b5b600061204289828a01611f56565b965050602061205389828a01611f80565b955050604061206489828a01611f80565b945050606061207589828a01611f80565b935050608061208689828a01611f80565b92505060a061209789828a01611f80565b9150509295509295509295565b6000602082840312156120ba576120b9612a44565b5b60006120c884828501611f6b565b91505092915050565b6000602082840312156120e7576120e6612a44565b5b60006120f584828501611f80565b91505092915050565b60006020828403121561211457612113612a44565b5b600061212284828501611f95565b91505092915050565b6000806040838503121561214257612141612a44565b5b600061215085828601611f80565b925050602061216185828601611f80565b9150509250929050565b60006121778383612197565b60208301905092915050565b600061218f838361239b565b905092915050565b6121a0816128c1565b82525050565b6121af816128c1565b82525050565b60006121c08261277d565b6121ca81856127ad565b93506121d58361275d565b8060005b838110156122065781516121ed888261216b565b97506121f883612793565b9250506001810190506121d9565b5085935050505092915050565b600061221e82612788565b61222881856127be565b93508360208202850161223a8561276d565b8060005b8581101561227657848403895281516122578582612183565b9450612262836127a0565b925060208a0199505060018101905061223e565b50829750879550505050505092915050565b612291816128d3565b82525050565b6122a081612909565b82525050565b60006122b3600b836127cf565b91506122be82612a49565b602082019050919050565b60006122d66026836127cf565b91506122e182612a72565b604082019050919050565b60006122f9600a836127cf565b915061230482612ac1565b602082019050919050565b600061231c6020836127cf565b915061232782612aea565b602082019050919050565b600061233f6007836127cf565b915061234a82612b13565b602082019050919050565b6000612362600a836127cf565b915061236d82612b3c565b602082019050919050565b60006123856008836127cf565b915061239082612b65565b602082019050919050565b6000610140830160008301516123b4600086018261254f565b5060208301516123c76020860182612197565b5060408301516123da604086018261254f565b5060608301516123ed606086018261254f565b506080830151612400608086018261254f565b5060a083015161241360a086018261254f565b5060c083015161242660c086018261254f565b5060e083015161243960e086018261254f565b5061010083015184820361010086015261245382826121b5565b91505061012083015161246a61012086018261254f565b508091505092915050565b60006101408301600083015161248e600086018261254f565b5060208301516124a16020860182612197565b5060408301516124b4604086018261254f565b5060608301516124c7606086018261254f565b5060808301516124da608086018261254f565b5060a08301516124ed60a086018261254f565b5060c083015161250060c086018261254f565b5060e083015161251360e086018261254f565b5061010083015184820361010086015261252d82826121b5565b91505061012083015161254461012086018261254f565b508091505092915050565b612558816128ff565b82525050565b612567816128ff565b82525050565b600060208201905061258260008301846121a6565b92915050565b600060608201905061259d60008301866121a6565b6125aa60208301856121a6565b6125b7604083018461255e565b949350505050565b60006040820190506125d460008301856121a6565b6125e1602083018461255e565b9392505050565b600060208201905081810360008301526126028184612213565b905092915050565b600060208201905061261f6000830184612288565b92915050565b600060208201905061263a6000830184612297565b92915050565b60006020820190508181036000830152612659816122a6565b9050919050565b60006020820190508181036000830152612679816122c9565b9050919050565b60006020820190508181036000830152612699816122ec565b9050919050565b600060208201905081810360008301526126b98161230f565b9050919050565b600060208201905081810360008301526126d981612332565b9050919050565b600060208201905081810360008301526126f981612355565b9050919050565b6000602082019050818103600083015261271981612378565b9050919050565b6000602082019050818103600083015261273a8184612475565b905092915050565b6000602082019050612757600083018461255e565b92915050565b6000819050602082019050919050565b6000819050602082019050919050565b600081519050919050565b600081519050919050565b6000602082019050919050565b6000602082019050919050565b600082825260208201905092915050565b600082825260208201905092915050565b600082825260208201905092915050565b60006127eb826128ff565b91506127f6836128ff565b9250827fffffffffffffffffffffffffffffffffffffffffffffffffffffffffffffffff0382111561282b5761282a612988565b5b828201905092915050565b6000612841826128ff565b915061284c836128ff565b92508261285c5761285b6129b7565b5b828204905092915050565b6000612872826128ff565b915061287d836128ff565b9250817fffffffffffffffffffffffffffffffffffffffffffffffffffffffffffffffff04831182151516156128b6576128b5612988565b5b828202905092915050565b60006128cc826128df565b9050919050565b60008115159050919050565b600073ffffffffffffffffffffffffffffffffffffffff82169050919050565b6000819050919050565b60006129148261291b565b9050919050565b60006129268261292d565b9050919050565b6000612938826128df565b9050919050565b600061294a826128ff565b91507fffffffffffffffffffffffffffffffffffffffffffffffffffffffffffffffff82141561297d5761297c612988565b5b600182019050919050565b7f4e487b7100000000000000000000000000000000000000000000000000000000600052601160045260246000fd5b7f4e487b7100000000000000000000000000000000000000000000000000000000600052601260045260246000fd5b7f4e487b7100000000000000000000000000000000000000000000000000000000600052603260045260246000fd5b7f4e487b7100000000000000000000000000000000000000000000000000000000600052604160045260246000fd5b600080fd5b7f6f76657220616d6f756e74000000000000000000000000000000000000000000600082015250565b7f4f776e61626c653a206e6577206f776e657220697320746865207a65726f206160008201527f6464726573730000000000000000000000000000000000000000000000000000602082015250565b7f6e6f7420656e6f75676800000000000000000000000000000000000000000000600082015250565b7f4f776e61626c653a2063616c6c6572206973206e6f7420746865206f776e6572600082015250565b7f6e6f742079657400000000000000000000000000000000000000000000000000600082015250565b7f6d696e6920656e74727900000000000000000000000000000000000000000000600082015250565b7f746f6f206c617465000000000000000000000000000000000000000000000000600082015250565b612b97816128c1565b8114612ba257600080fd5b50565b612bae816128d3565b8114612bb957600080fd5b50565b612bc5816128ff565b8114612bd057600080fd5b5056fea2646970667358221220b716b5a6d67d9d73347f21e39d04f4ed16c5bbf6d13308ff4b77f37558adb18664736f6c63430008070033",
  "linkReferences": {},
  "deployedLinkReferences": {}
}